:100000000C9456000C9460000C9460000C946000FA
:100010000C9460000C9460000C9460000C946000E0
:100020000C9460000C9460000C9460000C946000D0
:100030000C9460000C9460000C9460000C946000C0
:100040000C9460000C9460000C9460000C946000B0
:100050000C9460000C9460000C9460000C946000A0
:100060000C9460000C9460000C9460000C94600090
:100070000C9460000C9460000C9460000C94600080
:100080000C9460000C9460000C9460000C94600070
:100090000C9460000C9460000C9460000C94600060
:1000A0000C9460000C9460000C94600011241FBE3E
:1000B000CFEFDAE0DEBFCDBF0E94B0000C94990113
:1000C0000C9400000E949A000E949C00FDCFCF92E9
:1000D000DF92EF92FF926B017C0120E030E0A901FA
:1000E0000E94700118167CF48FE99FE00197F1F7E8
:1000F00000C0000020E030E040E85FE3C701B60147
:100100000E94B200E8CFFF90EF90DF90CF9008956B
:1001100021E030E0A90102C0440F551F8A95E2F7A3
:10012000CA0195B1662319F0892B85B90895809588
:100130008923FBCF209A089561E080E00E94880027
:1001400060E070E08AE794E40E94670060E080E08D
:100150000E94880060E070E08AE794E40C946700F5
:100160000E9462005058BB27AA270E94CA000C9424
:1001700036010E94280138F00E942F0120F039F446
:100180009F3F19F426F40C9425010EF4E095E7FB4B
:100190000C941F01E92F0E94470158F3BA17620718
:1001A00073078407950720F079F4A6F50C9469018C
:1001B0000EF4E0950B2EBA2FA02D0B01B901900182
:1001C0000C01CA01A0011124FF27591B99F0593FC6
:1001D00050F4503E68F11A16F040A22F232F342F0E
:1001E0004427585FF3CF469537952795A795F0405C
:1001F0005395C9F77EF41F16BA0B620B730B840B71
:10020000BAF09150A1F0FF0FBB1F661F771F881F28
:10021000C2F70EC0BA0F621F731F841F48F4879580
:1002200077956795B795F7959E3F08F0B0CF939572
:10023000880F08F09927EE0F97958795089597F9FD
:100240009F6780E870E060E008959FEF80EC08957C
:1002500000240A94161617061806090608950024A5
:100260000A9412161306140605060895092E03941F
:10027000000C11F4882352F0BB0F40F4BF2B11F493
:1002800060FF04C06F5F7F4F8F4F9F4F089557FDF2
:100290009058440F551F59F05F3F71F04795880FF4
:1002A00097FB991F61F09F3F79F08795089512168B
:1002B00013061406551FF2CF4695F1DF08C0161637
:1002C00017061806991FF1CF8695710561050894E8
:1002D0000895E894BB2766277727CB0197F90895FF
:1002E0000E94750108F48FEF0895990F0008550FCB
:1002F000AA0BE0E8FEEF16161706E807F907C0F0AC
:1003000012161306E407F50798F0621B730B840BB3
:10031000950B39F40A2661F0232B242B252B21F48D
:1003200008950A2609F4A140A6958FEF811D811D2D
:060330000895F894FFCFD0
:00000001FF
