:100000000C9456000C9460000C9460000C946000FA
:100010000C9460000C9460000C9460000C946000E0
:100020000C9460000C9460000C9460000C946000D0
:100030000C9460000C9460000C9460000C946000C0
:100040000C9460000C9460000C9460000C946000B0
:100050000C9460000C9460000C9460000C946000A0
:100060000C9460000C9460000C9460000C94600090
:100070000C9460000C9460000C9460000C94600080
:100080000C9460000C9460000C9460000C94600070
:100090000C9460000C9460000C9460000C94600060
:1000A0000C9460000C9460000C94600011241FBE3E
:1000B000CFEFDAE0DEBFCDBF0E9462000C9480007B
:1000C0000C940000519A599A90E080E0EFE9FFE02B
:1000D0003197F1F700C000000196843FF1E09F07DF
:1000E000A9F7599890E080E0EFE9FFE03197F1F748
:1000F00000C000000196843FF1E09F07A9F7E3CF1D
:04010000F894FFCFA1
:00000001FF
