:100000000C9456000C9460000C9460000C946000FA
:100010000C9460000C9460000C9460000C946000E0
:100020000C9460000C9460000C9460000C946000D0
:100030000C9460000C9460000C9460000C946000C0
:100040000C9460000C9460000C9460000C946000B0
:100050000C9460000C9460000C9460000C946000A0
:100060000C9460000C9460000C9460000C94600090
:100070000C9460000C9460000C9460000C94600080
:100080000C9460000C9460000C9460000C94600070
:100090000C9460000C9460000C9460000C94600060
:1000A0000C9460000C9460000C94600011241FBE3E
:1000B000CFEFDAE0DEBFCDBF0E9488000C94AC0029
:1000C0000C940000982F969596959695913021F076
:1000D000C8F0923099F008958770E8E2F0E021E0EE
:1000E00030E0A90102C0440F551F8A95E2F7CA010A
:1000F0009081662351F0892B808308958770EBE20D
:10010000F0E0EDCFE5E2F0E0EACF80958923F4CF8F
:10011000519A61E081E10E94620090E080E0EFE9A5
:10012000FFE03197F1F700C000000196843FF1E055
:100130009F07A9F760E081E10E94620090E080E003
:10014000EFE9FFE03197F1F700C000000196843F2E
:0C015000F1E09F07A9F7DDCFF894FFCF86
:00000001FF
