:100000000C9456000C9460000C9460000C946000FA
:100010000C9460000C9460000C9460000C946000E0
:100020000C9460000C9460000C9460000C946000D0
:100030000C9460000C9460000C9460000C946000C0
:100040000C9460000C9460000C9460000C946000B0
:100050000C9460000C9460000C9460000C946000A0
:100060000C9460000C9460000C9460000C94600090
:100070000C9460000C9460000C9460000C94600080
:100080000C9460000C9460000C9460000C94600070
:100090000C9460000C9460000C9460000C94600060
:1000A0000C9460000C9460000C94600011241FBE3E
:1000B000CFEFDAE0DEBFCDBF0E9467000C944002B4
:1000C0000C9400000E9469000E946D00FDCF0E9408
:1000D000620061E081E10C94810061E081E10E94B5
:1000E000A70060E070E08AEF93E40E94380160E0CE
:1000F00081E10E94A70060E070E08AEF93E40C9435
:100100003801982F969596959695913021F0D0F0DC
:100110009230A1F008958770E7E2F0E021E030E04E
:10012000A90102C0440F551F8A95E2F7CA019081C8
:1001300061110BC080958923808308958770EAE25E
:10014000F0E0ECCFE4E2F0E0E9CF892BF5CF982F97
:10015000969596959695913021F0C8F0923099F049
:1001600008958770E8E2F0E021E030E0A90102C0E4
:10017000440F551F8A95E2F7CA019081662351F01A
:10018000892B808308958770EBE2F0E0EDCFE5E204
:10019000F0E0EACF80958923F4CF982F9695969535
:1001A0009695913029F0B0F0923081F080E008957A
:1001B0008770E6E2F0E0208130E0A90102C05595A9
:1001C00047958A95E2F7CA01817008958770E9E240
:1001D000F0E0F1CFE3E2F0E0EECF0F931F93CF9387
:1001E000DF93982F969596959695913041F050F122
:1001F000923019F1DF91CF911F910F910895D82F6F
:10020000D77008E210E0C62F61E00E948100809163
:1002100080008168809380006C2F70E0709389006B
:1002200060938800F801808121E030E001C0220F56
:10023000DA95EAF7822B8083DDCFD82FD7700BE2D7
:1002400010E0E1CFD82F05E210E0DDCF87708064A9
:1002500080937C0080917A00806480937A00809102
:100260007A0086FDFCCF8091780090917900089506
:10027000CF92DF92EF92FF926B017C0120E030E0A1
:10028000A9010E94170218167CF48FE99FE00197DC
:10029000F1F700C0000020E030E040E85FE3C70174
:1002A000B6010E945901E8CFFF90EF90DF90CF9008
:1002B00008955058BB27AA270E9471010C94DD01B4
:1002C0000E94CF0138F00E94D60120F039F49F3F00
:1002D00019F426F40C94CC010EF4E095E7FB0C9491
:1002E000C601E92F0E94EE0158F3BA17620773079F
:1002F0008407950720F079F4A6F50C9410020EF40B
:10030000E0950B2EBA2FA02D0B01B90190010C0125
:10031000CA01A0011124FF27591B99F0593F50F43D
:10032000503E68F11A16F040A22F232F342F442795
:10033000585FF3CF469537952795A795F04053958D
:10034000C9F77EF41F16BA0B620B730B840BBAF05D
:100350009150A1F0FF0FBB1F661F771F881FC2F7C8
:100360000EC0BA0F621F731F841F48F487957795DC
:100370006795B795F7959E3F08F0B0CF9395880F96
:1003800008F09927EE0F97958795089597F99F673D
:1003900080E870E060E008959FEF80EC089500240D
:1003A0000A941616170618060906089500240A94DA
:1003B00012161306140605060895092E0394000C60
:1003C00011F4882352F0BB0F40F4BF2B11F460FFEF
:1003D00004C06F5F7F4F8F4F9F4F089557FD905818
:1003E000440F551F59F05F3F71F04795880F97FBF9
:1003F000991F61F09F3F79F08795089512161306B3
:100400001406551FF2CF4695F1DF08C016161706E1
:100410001806991FF1CF8695710561050894089516
:10042000E894BB2766277727CB0197F908950E94A8
:100430001C0208F48FEF0895990F0008550FAA0BBE
:10044000E0E8FEEF16161706E807F907C0F01216E7
:100450001306E407F50798F0621B730B840B950BEA
:1004600039F40A2661F0232B242B252B21F408953F
:100470000A2609F4A140A6958FEF811D811D0895DC
:04048000F894FFCF1E
:00000001FF
